:1000000034C04EC04DC04CC04BC04AC049C048C0AF
:1000100047C046C045C044C043C042C041C040C0C4
:100020003FC03EC03DC03CC03BC0001F00000000C0
:100030001F00001F101010101F00001F18181818A4
:100040001F00001F1C1C1C1C1F00001F1E1E1E1E4C
:100050001F00001F1F1F1F1F1F0003070F1F0F0779
:100060000300181C1E1F1E1C180011241FBECFE504
:10007000D2E0DEBFCDBF10E0A0E6B0E0E6E6F4E0FF
:1000800002C005900D92A837B107D9F710E0A8E794
:10009000B0E001C01D92AE37B107E1F717D0E2C161
:1000A000AFCF87E689B910BC86E880BD88E08AB901
:1000B00008951F93182F8A3011F48DE0FADF5D9BAD
:1000C000FECF1CB980E090E01F91089587E689B9C2
:1000D00010BC86E880BD88E08AB989E690E09093FC
:1000E0007B0080937A0020D13CD065E080E690E0F0
:1000F0003ED086E690E05CD1FCCF982F907F92BBFB
:10010000A89AAA9AE0EAFFE0DF011197F1F7AA980E
:10011000A898DF011197F1F78295807F82BBA89A9A
:10012000AA9ACF010197F1F7AA98A8983197F1F709
:100130000895982F907F92BBAA9AE0EAFFE0DF0132
:100140001197F1F7AA98DF011197F1F78295807F57
:1001500082BBAA9ACF010197F1F7AA983197F1F7DC
:10016000089581E0E6DF089582E0E3DF08950F93CC
:100170001F93CF93DF93EC01062F892B51F010E0F2
:1001800006C0FE01E10FF11D8081B7DF1F5F101770
:10019000C1F7DF91CF911F910F910895623031F037
:1001A000633031F0613029F4805C03C08C5E01C0A3
:1001B0008C5A8068BEDF08950F931F93CF93DF930F
:1001C0008C01862F642FEADFC0E0D0E001C095DF0C
:1001D000F801EC0FF11D849121968823C1F7DF917E
:1001E000CF911F910F910895EF92FF920F931F935C
:1001F000CF93DF93062F000F000F000F0064EE2453
:10020000FF24EC01FE011491802F8E0D92DF812FCF
:1002100074DF0894E11CF11C2196F8E0EF16F1045C
:1002200089F7DF91CF911F910F91FF90EF90089583
:100230000F931F93082F10E003C08EE17ADF1F5F3A
:100240001017D9F71F910F9108950F931F93082F3F
:1002500010E003C088E16DDF1F5F1017D9F71F9111
:100260000F9108958EE065DF08958FE062DF0895B5
:100270008CE05FDF089588E05CDF08958CE059DF53
:1002800008950F931F93082F10E003C080E151DF02
:100290001F5F1017D9F71F910F9108950F931F93A8
:1002A000082F10E003C084E144DF1F5F1017D9F767
:1002B0001F910F910895FF920F931F93CF93DF9398
:1002C000F42E242F332796E0899FC001112477272D
:1002D000AC01249FC001259F900D349F900D1124E7
:1002E000AED0EB01CB0166E070E095D0082F10E0B6
:1002F00013C086E0189F90011124C9010596C81704
:10030000D90710F085E006C0C217D30710F480E0CB
:1003100001C0802FF2DE1F5F1F1559F7DF91CF91CB
:100320001F910F91FF9008950F931F93CF93DF9329
:1003300080E69AEE0197F1F712BA15BA81B3806F91
:1003400081BB84B3876084BB20E322BBAA9A80EA86
:100350009FE0FC013197F1F7AA98FC013197F1F782
:1003600022BBAA9AFC013197F1F7AA98FC013197B8
:10037000F1F720E222BBAA9AFC013197F1F7AA9883
:100380000197F1F788E2D5DE8CE0D3DEC0E0D0E063
:100390000AE210E06C2FC80127DF2196085F1F4F8B
:1003A000C830D105B9F7DF91CF911F910F91089512
:1003B0000F931F93CF93DF938C01E0917A00F0911C
:1003C0007B00838181FF1FC0C0E0D0E00AC0FD0137
:1003D00020853185BD01F9010995892B11F0CFEFF9
:1003E000DFEFF80181918F01A0917A00B0917B003D
:1003F000882369F7FD0120853185BD018AE0F90177
:100400000995892B11F0CFEFDFEFCE01DF91CF916E
:100410001F910F910895AA1BBB1B51E107C0AA1F92
:10042000BB1FA617B70710F0A61BB70B881F991F95
:100430005A95A9F780959095BC01CD01089597FB39
:10044000092E07260AD077FD04D0E5DF06D000206C
:100450001AF4709561957F4F0895F6F79095819500
:060460009F4F0895FFCF3D
:100466005553415254006869000000000200000024
:08047600005900000000000025
:00000001FF
